:100000000C942A000C94BB000C9447000C944700FD
:100010000C9447000C9447000C9447000C94470044
:100020000C9447000C9447000C9447000C94470034
:100030000C9447000C9447000C9447000C94470024
:100040000C9447000C9447000C9447000C94470014
:100050000C94470011241FBECFE5D8E0DEBFCDBF12
:1000600010E0A0E6B0E0E2E9F8E002C005900D92F1
:10007000A036B107D9F710E0A0E6B0E001C01D92AC
:10008000A436B107E1F70E9456000C9447040C9483
:1000900000003E9A379A309A319A329A0895369AE9
:1000A00086B186FDFDCF84B195B1089585B7816095
:1000B00085BF85B7826085BF8BB780648BBF78941E
:1000C0000E9459010E9449000E946E020E9487020C
:1000D00080916000909161000E94750280916000A3
:1000E000909161000E948E020E944F00BC0180E04E
:1000F00090E00E94340320E030E048EC52E40E949B
:10010000C20320E030EC4FE754E40E94A0020E94BA
:100110000803DC01CB01909361008093600081E0D3
:100120000E94FF00609160007091610080E090E0AB
:100130000E94030283E80E94FF0085E20E9493016F
:1001400088B599B5009739F480916000909161006D
:100150000E94750206C080916000909161000E942B
:100160008E028FEF91EEA4E081509040A040E1F725
:1001700000C00000B9CF1F920F920FB60F9211244A
:100180002F933F934F935F936F937F938F939F939F
:10019000AF93BF93EF93FF9380916300882379F42B
:1001A00080916000909161000E948E0280916200B7
:1001B00090E00E94750281E0809363000FC081305F
:1001C00069F48091620090E00E948E02809160004C
:1001D000909161000E94750210926300FF91EF916F
:1001E000BF91AF919F918F917F916F915F914F914F
:1001F0003F912F910F900FBE0F901F901895D99897
:10020000982F92959F7090FF02C0DB9A01C0DB98F7
:10021000982F92959695977090FF02C0DC9A01C036
:10022000DC98982F929596959695937090FF02C0C2
:10023000DD9A01C0DD98882314F4DE9A01C0DE98AF
:10024000DA9AEFE9FFE03197F1F700C00000DA98A1
:10025000EFE9FFE03197F1F700C0000080FF02C036
:10026000DB9A01C0DB98982F969590FF02C0DC9A2C
:1002700001C0DC98982F9695969590FF02C0DD9A64
:1002800001C0DD9886958695869580FF02C0DE9A2E
:1002900001C0DE98DA9A8FE99FE00197F1F700C07C
:1002A0000000DA98EFE9FFE03197F1F700C00000B5
:1002B00008958AB38E678ABB83E00E94FF008FE7B0
:1002C0009EE30197F1F700C0000083E00E94FF0069
:1002D000AFE7BEE31197F1F700C0000083E00E9492
:1002E000FF008FE79EE30197F1F700C0000082E076
:1002F0000E94FF0088E20E94FF0088E00E94FF0049
:1003000081E00E94FF0086E00E94FF008FEF99EFDE
:10031000A0E081509040A040E1F700C000008CE0D8
:100320000E94FF000895D99A982F92959F7090FF90
:1003300002C0DB9A01C0DB98982F92959695977032
:1003400090FF02C0DC9A01C0DC98982F9295969598
:100350009695937090FF02C0DD9A01C0DD988823C6
:1003600014F4DE9A01C0DE98DA9AEFE9FFE03197E3
:10037000F1F700C00000DA98EFE9FFE03197F1F7FC
:1003800000C0000080FF02C0DB9A01C0DB98982FFC
:10039000969590FF02C0DC9A01C0DC98982F969544
:1003A000969590FF02C0DD9A01C0DD9886958695EE
:1003B000869580FF02C0DE9A01C0DE98DA9A8FE946
:1003C0009FE00197F1F700C00000DA98EFE9FFE045
:1003D0003197F1F700C0000008950F931F93CF935A
:1003E0008C01FC018081882351F0C0E00E949301C0
:1003F000CF5FF801EC0FF11D80818823B9F7CF9111
:100400001F910F9108958F929F92AF92BF92EF929A
:10041000FF921F93CF93DF93CDB7DEB72A970FB626
:10042000F894DEBF0FBECDBFDC01CB01AE014F5F44
:100430005F4F2AE0FA0111922A95E9F70097A1058A
:10044000B10521F480E30E94930138C010E00F2E23
:10045000FAE08F2EF0E09F2EF0E0AF2EF0E0BF2EFE
:10046000F02DE12EFF24E7FCF09421E030E02C0F8A
:100470003D1FE20EF31EBC01CD01A50194010E94B7
:100480002504605DF7016083822F932FA42FB52F81
:100490001F5F0097A105B10521F711507AF0E12FF8
:1004A000FF27E7FDF09521E030E02C0F3D1FE20F24
:1004B000F31F80810E949301115088F72A960FB68E
:1004C000F894DEBF0FBECDBFDF91CF911F91FF909B
:1004D000EF90BF90AF909F908F9008958D9A8FB5B9
:1004E00083688FBD89E08EBD0895BC0180E090E0F7
:1004F0000E94340324E13EEA43E251E40E94C20335
:100500000E940803DC01CB019BBD8ABD08958C9A33
:100510008FB583628FBD89E08EBD0895BC0180E0F8
:1005200090E00E94340324E13EEA43E251E40E9459
:10053000C2030E940803DC01CB0199BD88BD089568
:100540000CD0E6C0DED040F0D5D030F021F45F3FD3
:1005500019F0C7C0511110C1CAC0EBD098F399234C
:10056000C9F35523B1F3951B550BBB27AA27621777
:100570007307840738F09F5F5F4F220F331F441FBC
:10058000AA1FA9F333D00E2E3AF0E0E830D09150F4
:100590005040E695001CCAF729D0FE2F27D0660FE1
:1005A000771F881FBB1F261737074807AB07B0E820
:1005B00009F0BB0B802DBF01FF2793585F4F2AF036
:1005C0009E3F510568F08DC0D7C05F3FECF3983E69
:1005D000DCF3869577956795B795F7959F5FC9F793
:1005E000880F911D9695879597F90895E1E0660F1C
:1005F000771F881FBB1F621773078407BA0720F095
:10060000621B730B840BBA0BEE1F88F7E0950895FD
:1006100098D088F09F5790F0B92F9927B751A0F044
:10062000D1F0660F771F881F991F1AF0BA95C9F786
:1006300012C0B13081F09FD0B1E008959CC0672F07
:10064000782F8827B85F39F0B93FCCF38695779536
:100650006795B395D9F73EF490958095709561951F
:100660007F4F8F4F9F4F0895E89409C097FB3EF44A
:1006700090958095709561957F4F8F4F9F4F9923EF
:10068000A9F0F92F96E9BB279395F695879577956D
:100690006795B795F111F8CFFAF4BB0F11F460FF2D
:1006A0001BC06F5F7F4F8F4F9F4F16C0882311F085
:1006B00096E911C0772321F09EE8872F762F05C099
:1006C000662371F096E8862F70E060E02AF09A9534
:1006D000660F771F881FDAF7880F9695879597F929
:1006E000089597F99F6780E870E060E008959FEFB4
:1006F00080EC089500240A941616170618060906B9
:10070000089500240A941216130614060506089587
:10071000092E0394000C11F4882352F0BB0F40F40F
:10072000BF2B11F460FF04C06F5F7F4F8F4F9F4F4F
:10073000089557FD9058440F551F59F05F3F71F0D1
:100740004795880F97FB991F61F09F3F79F0879538
:100750000895121613061406551FF2CF4695F1DFC1
:1007600008C0161617061806991FF1CF8695710551
:10077000610508940895E894BB2766277727CB0185
:1007800097F908950BD0C4CFB5DF28F0BADF18F081
:10079000952309F0A6CFABCF1124EECFCADFA0F38B
:1007A000959FD1F3950F50E0551F629FF001729F06
:1007B000BB27F00DB11D639FAA27F00DB11DAA1F25
:1007C000649F6627B00DA11D661F829F2227B00D72
:1007D000A11D621F739FB00DA11D621F839FA00DFD
:1007E000611D221F749F3327A00D611D231F849F4D
:1007F000600D211D822F762F6A2F11249F575040A4
:100800008AF0E1F088234AF0EE0FFF1FBB1F661F3E
:10081000771F881F91505040A9F79E3F510570F0F7
:1008200060CFAACF5F3FECF3983EDCF386957795D7
:100830006795B795F795E7959F5FC1F7FE2B880FF2
:10084000911D9695879597F90895A1E21A2EAA1BF6
:10085000BB1BFD010DC0AA1FBB1FEE1FFF1FA21770
:10086000B307E407F50720F0A21BB30BE40BF50B6D
:10087000661F771F881F991F1A9469F760957095F6
:10088000809590959B01AC01BD01CF010895F8942E
:02089000FFCF98
:00000001FF
